:020000040800F2
:10000000B00F0020650100086D0100086F010008B5
:10001000710100087301000875010008000000006C
:100020000000000000000000000000007701000850
:1000300079010008000000007B010008BD290008CC
:100040007F0100087F0100087F0100087F01000890
:100050007F0100087F0100087F0100087F01000880
:100060007F0100087F0100087F0100087F01000870
:100070007F0100087F0100087F0100087F01000860
:100080007F0100087F0100087F0100085502000879
:10009000490200087F0100087F0100087F01000875
:1000A0007F0100087F0100087F0100087F01000830
:1000B0007F0100087F0100087F0100087F01000820
:1000C0007F0100087F0100087F0100087F01000810
:1000D0007F0100087F0100087F0100087F01000800
:1000E0007F0100087F0100087F0100080000000078
:1000F0000000000000000000000000000000000000
:1001000000000000000000007F0100087F010008DF
:100110007F0100087F0100087F0100087F010008BF
:100120007F0100087F0100087F0100087F010008AF
:100130007F01000800000000000000006D020008C0
:10014000610200087F0100087F010008892700087C
:10015000DFF80CD000F03AF800480047E53F00080F
:10016000B00F00200648804706480047FEE7FEE73C
:10017000FEE7FEE7FEE7FEE7FEE7FEE7FEE7FEE757
:100180004D2A000851010008202A04DB203A21FAF8
:1001900002F00021704721FA02F3D040C2F12002A0
:1001A000914008431946704740EA01039B0703D07A
:1001B00009E008C9121F08C0042AFAD203E011F8A6
:1001C000013B00F8013B521EF9D27047064C074D27
:1001D00006E0E06840F0010394E807009847103417
:1001E000AC42F6D3FFF7B8FFDC400008FC40000843
:1001F00070B58C1810F8015B15F0070301D110F8E9
:10020000013B2A1106D110F8012B03E010F8016B15
:1002100001F8016B5B1EF9D12B0705D40023521E98
:100220000DD401F8013BFAE710F8013BCB1A921C00
:1002300003E013F8015B01F8015B521EF9D5A142FE
:10024000D8D3002070BD0000014800F0D9B90000EB
:10025000F0010020014800F0D3B90000F0010020B7
:10026000014800F0CDB9000030020020014800F044
:10027000C7B900003002002010B54FF4D8720368EF
:1002800002EB01129B5813F00404436B9C6004685A
:10029000436BA45856D0E4085C6003689A58436BDB
:1002A00002F00202DA604FF4DA72036802EB011224
:1002B0009B58446B03F00F03236103689A58436B08
:1002C000C2F30722DA614FF4DC72036802EB011219
:1002D0009B58446B237503689B58446B1B0A6375DA
:1002E00003689B58446B1B0CA37503689A58436BB7
:1002F000120EDA754FF4DE72036802EB01129B589E
:10030000446B237603689B58446B1B0A637603682F
:100310009B58446B1B0CA37603689A58436B120ED0
:100320000029DA76016810D00A6942F020020A61D9
:1003300001684A6922F010024A6190F839102229B6
:100340000CD010E0640D1C60A7E7CA6842F02002E0
:10035000CA6001684A6922F00202EDE701684A6951
:1003600022F40F424A6190F83910322906D0012157
:1003700080F8391000F04EFB002010BD1221F7E785
:10038000002070470020704710B5084C0648002236
:100390000749206002F016FD05492068403902F047
:1003A0000BFD002010BD0000880B0020AC000020D9
:1003B0008005002070B50E460546002403E0285D48
:1003C00002F0E6FA641C3068A042F8D8054C2946D1
:1003D000206802F0F1FC206802F0D2FC02F01EF965
:1003E000002070BDAC00002010B5064C0A46014646
:1003F000206802F0E7FC206802F024FD0028FAD112
:1004000010BD0000AC000020012002F00DF9FEE755
:1004100006490020C8610648016941F004010161F4
:10042000016941F04001016170470000D0010020E6
:1004300000200240064A0021D16106490A6942F0C3
:1004400002020A614861086940F040000861704793
:10045000D001002000200240044B0022DA61044A4F
:10046000136943F00103136101807047D00100203C
:10047000002002400E49C868C2060E4803D5C26972
:1004800042F00202C261CA68520703D5C26942F053
:100490000102C261CA69D20707D0C26942F00402F0
:1004A000C261C86920F00100C8611420C8607047AB
:1004B00000200240D001002070B5054600F088FD04
:1004C0000646114C09E0681C07D025B100F080FDFC
:1004D000801BA84201D9032070BDE068C007F2D19B
:1004E000E068800601D52020E060E068C00605D401
:1004F000E069C00702D1E068400703D5FFF7BAFF03
:10050000012070BD002070BD00200240F0B50C7DC0
:10051000012303FA04F20468D4F800524E6A25F469
:100520007C5503EB06231D43C4F800520368D3F83F
:100530001C429443C3F81C424FF41073CD691C1D38
:10054000BDB90568D5F80C629643C5F80C628E8972
:100550004D684F6966F31F45066803EBC707F55101
:100560000E890D684F6966F31F45066804EBC707DF
:10057000F551CD69012D17D10568D5F80C621643E8
:10058000C5F80C620E884D684F6966F31F45066812
:1005900003EBC703F5500D89CB684E6965F31F4324
:1005A000056804EBC6042B518B69002B0368D3F854
:1005B000044211D054EA0204C3F804420B69002B30
:1005C0000368D3F8144209D054EA0204C3F8144271
:1005D000096A012904D009E09443EDE79443F5E763
:1005E0000168D1F81C321343C1F81C320068D0F8FE
:1005F000001221F00101C0F800120020F0BD704788
:1006000070B50168044648694FF00105C043C00752
:1006100022D18A685948904307D08A685848904345
:1006200003D08A685748904316D14A69204622F081
:1006300001024A6194F83910122904D101684A690B
:1006400022F40F424A6190F83910322963D080F8C1
:10065000395000BF00F017FB20684169C943890782
:1006600006D4C068800703D000212046FFF704FEAF
:1006700020684169C943C90606D40069800703D0D0
:1006800001212046FFF7F8FD20688169C9070BD0DA
:100690004169C943C90507D44169C943090403D461
:1006A000E16B41F00101E163816989070BD5416983
:1006B000C943890507D44169C943090403D4E16BDF
:1006C00041F00201E163816949070BD54169C943E2
:1006D000490507D44169C943090403D4E16B41F0DA
:1006E0000401E163816911F0700F29D04169C943A8
:1006F000090525D44169C943090421D4816901F060
:10070000700140292ED00ADC10290DD020290FD0ED
:10071000302911D122E0222180F839109AE750299E
:1007200024D0602908D125E0E16B41F0080102E006
:10073000E16B41F01001E163816921F07001816199
:10074000E06B002809D02068416841F00401416055
:1007500084F839502046FFF752FF70BDE16B41F03D
:100760002001E8E7E16B41F04001E4E7E16B41F093
:100770008001E0E7E16B41F48071DCE703000004F5
:1007800000030008000003102DE9F04104004FF0C1
:10079000000504D094F83900002618B107E00120C4
:1007A000BDE8F08184F83860204600F077F8022038
:1007B00084F839002068016821F002010160206896
:1007C000016841F00101016000F002FC07464FF0B2
:1007D000030804E000F0FCFBC01B0A2845D8206891
:1007E0004068C007F6D020684168C90751D0A169A8
:1007F000012901D145F08005E169012901D145F0C8
:100800004005216A012901D145F02005616A0129CD
:1008100001D145F01005A16A012901D145F0080573
:10082000E16A012901D145F00405016821F0FC01CC
:1008300029430160D4E902010843D4E904121143B9
:1008400008436168491E08432168C861206801683F
:1008500021F00101016000F0BBFB05460BE000BF89
:1008600000F0B6FB401B0A2805D984F8398084F8CB
:100870003860032094E720684068C007F0D0206803
:100880004068C00705D0E663012084F839000020E5
:1008900086E7042084F8390081E70000F0B53F4B7B
:1008A0000768DFF8F4C0186800223D4C02250326D3
:1008B0003C49401C85B0674532D11860012807D1FA
:1008C000C86940F00070C861C86900F00070049009
:1008D0004FF48070CDE9000269462046029200F094
:1008E0008FFA4FF40070CDE9000569460396204663
:1008F00000F086FA2C48416821F4C04141F480415F
:10090000416000221146132000F0B6FB132000F0D6
:10091000A7FB00221146142000F0AEFB142036E0A5
:10092000DFF888C0674534D1CF6947F08067CF6171
:10093000CF69012807F080670497186007D1C8695C
:1009400040F00070C861C86900F0007004904FF476
:100950008050CDE9000269462046029200F050FA2C
:100960004FF40050CDE9000569460396204600F09B
:1009700047FA002211463F2000F07EFB3F2000F0A6
:100980006FFB00221146402000F076FB402000F073
:1009900067FB05B0F0BD000000640040B00000201F
:1009A000000C0140001002400000014000680040BF
:1009B00030B590F83920012A03D090F83920122A56
:1009C00026D190F83820012A22D0012280F8382040
:1009D00090F83920122A16D05FF0220280F83920D0
:1009E0000022C26303685C6948F601752C435C61B0
:1009F00080F8382000680029416906D041F01001D4
:100A00004161002030BD3222E8E741F00201F7E702
:100A1000022030BD2DE9F041514C0127DFF844811F
:100A2000064604F14005A04246D1616B4E484F4A4C
:100A30008B6800681268E3B34968014091427ED137
:100A400001F0ECFD606B296B00680860606B296B3E
:100A5000C068C860606B296B80688860606B296BB8
:100A600040684860606B296B00690861606B296BA6
:100A7000007D0875606B296B407D4875606B296B44
:100A8000807D8875606B296BC07DC875606B296B34
:100A9000007E0876606B296B407E4876606B296B20
:100AA000807E8876606B296BC07EC87688F801707E
:100AB00045E0FFE70968C0E76A6B2D492D48936858
:100AC00009680068EBB352680A40824237D101F0EE
:100AD00097FD686B216B00680860686B216BC068CC
:100AE000C860686B216B80688860686B216B4068A8
:100AF0004860686B216B00690861686B216B007D41
:100B00000875686B216B407D4875686B216B807D33
:100B10008875686B216BC07DC875686B216B007E22
:100B20000876686B216B407E4876686B216B807E0F
:100B30008876686B216BC07EC87688F800700020CC
:100B400000E009E086F8380001463046FFF730FF44
:100B5000002803D0FFF758FC1268B5E7BDE8F08124
:100B6000F00100200800002014F800080CF800082C
:100B700024F800081CF8000870B590F83910012915
:100B800003D090F8391022297BD190F83810012930
:100B900077D0012180F8381003689968490101D5A0
:100BA000002208E09968090101D5012203E0996853
:100BB000C90058D502224FF4C07101EB02115C58F4
:100BC00004F001045C50036B9C68ECB30668755834
:100BD0002543DC685B6844EAC3031D437550036B1F
:100BE0001C7C04F00F041C614FF4C273046803EB17
:100BF0000213E55825F00F05E5500468E558066B2B
:100C000036693543E550036B4FF4C47505EB0215A7
:100C10001C7DD3F8153044EA032304686351036B49
:100C20004FF4C67505EB02121C7ED3F8193044EA66
:100C300003230468A35090F83920222A1FD01222DF
:100C400080F83920002200E010E0C26380F83820EC
:100C50000268536948F6017423435361006842589F
:100C600042F001024250002070BD0AE0046865585D
:100C7000DE681B88354345EA43536350AFE73222B1
:100C8000DEE70220F0E7704731B500F0A1F9044635
:100C900000F09EF90099001B8842F9D338BD00008E
:100CA0002DE9F047054626480F460126017E012919
:100CB0000FD00121814601762868DFF888804CF248
:100CC0005034022808D0A2462046FFF7F5FBA8B111
:100CD00031E00220BDE8F0872046FFF7EDFB08BBBE
:100CE0000120FFF795FB2046FFF7E6FBD8F8101030
:100CF000064621F00401C8F810101CE04FF0FF3048
:100D00003860AC6811E02046FFF794FB5046FFF7CF
:100D1000D3FBD8F81010060021F00201C8F810101B
:100D200001D03C6007E004F50064D5E9020100EB66
:100D3000C120A042E7D8002189F818103046C9E741
:100D4000D0010020002002400348016941F08001E9
:100D50000161002070470000002002402DE9F05F93
:100D600007461C4888460024017E15461E46012978
:100D700009D00121814601764CF2503A5046FFF7E6
:100D80009BFB18B122E00220BDE8F09F012F02D0AA
:100D9000022F00D00427D346DFF83CA022012846CA
:100DA0003146FFF7F1F981B208EB4400FFF754FB3D
:100DB0005846FFF781FBDAF8102022F00102CAF84A
:100DC000102018B9641CE4B2BC42E7D3002289F8B1
:100DD0001820D9E7D0010020002002400548016911
:100DE000090605D504494160044941600020704767
:100DF000012070470020024023016745AB89EFCDF9
:100E00002DE9F84FDFF890A100220AF1040B1446F7
:100E100001274FF00F090BF1040E00BF0B6807FA12
:100E200004F52B40AB4274D1DFF870C14E68A6EBDD
:100E30000C0866452BD00DDC032E34D005DC36B310
:100E4000012E19D0022E2FD11BE0112E16D0122EFA
:100E50002AD119E0B8F5881F19D006DCB8F5803F13
:100E600015D0B8F5801F1FD111E0B8F5001F0ED0C6
:100E7000B8F5041F18D10AE0CA6815E0CA68121D47
:100E800012E0CA6808320FE0CA680C320CE08A68C7
:100E90002AB1012A4FF0080203D0456104E0042280
:100EA00002E0056100E00022FF2B01D8064601E0C8
:100EB00000F104064FEA840501D9A5F12005D6F812
:100EC00000C009FA05F82CEA080C02FA05F54CEA0C
:100ED000050CC6F800C04D68ED0057D5304DAE6921
:100EE00046F00106AE61AD6924F0030605F0010588
:100EF00000952C4D06EB050CDCF80850A6074FEAD0
:100F0000167809FA08F6B543274EB04202D10026FA
:100F100010E03BE0254EB04201D101260AE0244E0C
:100F2000B04201D1022605E0224EB04201D1032693
:100F300000E0042606FA08F62E43CCF808604D6857
:100F4000DAF80060ED03554601D51E4300E09E43EC
:100F50002E604D68DBF80060AD035D4601D51E4391
:100F600000E09E432E604D68DEF80060ED0275469D
:100F700001D51E4300E09E432E604D68AD020E4D2C
:100F80002E6801D51E4300E09E432E60641C102C89
:100F9000FFF444AFBDE8F88F0004014000001110D9
:100FA000001002400000014000080140000C014018
:100FB00000100140001401400C040140C2684A4086
:100FC000C26070470AB1016170470904FBE7000085
:100FD00001480068704700000000002002480168D6
:100FE000491C01607047000000000020074810B550
:100FF000016841F010010160032000F05DF800205D
:1010000000F006F800F016F8002010BD00200240A5
:1010100010B5044600F07AFE4FF47A71B0FBF1F09F
:1010200001F0D6FA00222146501E00F025F80020DB
:1010300010BD0000094808B5816941F001018161D6
:10104000806900F001000090032000F035F80022D4
:10105000BDE808401146501E00F00EB800100240D6
:1010600000F01F02012191404009800000F1E020C2
:10107000C0F8001170470000F0B40E4B1B680C461E
:10108000C3F30223C3F10705042D00D90425191D5C
:10109000072901D2002300E0DB1E012606FA05F134
:1010A000491E214099409E40761E16403143F0BCB7
:1010B00001F05ABB0CED00E0064900F00702086899
:1010C0004FF6FF03184040EA0220034A104308602D
:1010D000704700000CED00E00000FA05BFF34F8FF1
:1010E00005480168054A01F4E06111430160BFF35E
:1010F0004F8F00BFFDE700000CED00E00400FA0593
:1011000070470068416200207047F0B50068002316
:10111000446A31B1856A4FF4827604EB15444D1E62
:101120000AE044EA024181620FE006EB8307C759F7
:101130005B1C04EB1744DBB2AB42F6DB4FF480736D
:1011400003EB810144EA024242500020F0BDD0F896
:10115000A40302F08DB8C1EBC10200EB8202D0F80B
:10116000A403526B01F0FABFC1EBC10200EB820293
:10117000D0F8A403D2F8D82102F045B8D0F8A403DF
:1011800002F078B810B504460A460B0601F07F005D
:10119000C0EBC00104EB810101D5283101E001F56C
:1011A000E6710870D009487094F87003012809D0DE
:1011B000012084F87003206802F044FB002084F8CA
:1011C000700310BD022010BD70B50A460446090622
:1011D00002F07F0005D5C0EBC00104EB810128318E
:1011E00005E0C2EBC20104EB810101F5E6710025C7
:1011F0008D700870D009487094F87003012809D0E8
:10120000012084F87003206802F09DFC84F870537C
:10121000002070BD022070BD01F07F01C1EBC10153
:1012200000EB8100B0F8E40180B2704770B504466D
:101230000D460E0601F07F00C0EBC00104EB8101FA
:1012400001D5283101E001F5E6710870E809487020
:101250008A60CB7094F87003012809D0012084F8CB
:101260007003206802F058FA002084F8700370BD03
:10127000022070BD70B504460E4601F07F00C0EB41
:10128000C00104EB81010025C1F8D821C1E97835FE
:1012900081F8CD5181F8CC0194F8700301F5E67125
:1012A00001280BD0012084F870037006206807D055
:1012B00002F0AAFC84F87053002070BD022070BDBB
:1012C00002F09CFBF6E770B50D460446090605F0F2
:1012D0007F0005D5C0EBC00104EB8101283105E09A
:1012E000C5EBC50104EB810101F5E67101228A70AD
:1012F0000870E809487094F87003012807D084F852
:101300007023206802F051FC680602D006E002203B
:1013100070BD04F55D71206802F0FEFB002084F8CA
:10132000700370BD70B504460E4601F07F00C0EB3F
:10133000C00104EB810100254A63C1E90F35012298
:1013400081F8292001F8280F94F8700301280BD0A8
:1013500084F870237006206808D002F055FC00BFA6
:1013600084F87053002070BD022070BD02F046FB6F
:10137000F6E700002DE9F05F044600680026054608
:1013800002F064FD00287DD1206802F088FD00286D
:1013900078D0206802F083FD80074FF0020B02D561
:1013A0002168C1F814B0206802F079FD00034FF005
:1013B00008092CD5206802F054FD074625E0F807FF
:1013C00021D0F1B2206802F062FD8046C00708D04B
:1013D00005EB46100121C0F8081BF1B22046FFF7CB
:1013E000C3FE5FEA087006D5204600F015FA05EB4B
:1013F0004610C0F8089B5FEAC86004D505EB4610AC
:101400001021C0F8081B7F08761C002FD7D1206858
:1014100002F045FD40034FF0400A48D5206802F035
:1014200019FD0746002640E0F8073CD0F1B22068DD
:1014300002F01EFD8046C0070FD00121D5F83428E8
:1014400001FA06F08243C5F8342805EB4610C0F8CF
:101450000819F1B22046FFF77EFE5FEA087003D557
:1014600005EB4610C0F808995FEAC86004D505EBA3
:1014700046101021C0F808195FEA486005D505EB51
:10148000461000E011E1C0F808A95FEA887003D5B2
:1014900005EB4610C0F808B95FEA086003D531468D
:1014A000204601F077F97F08761C002FBCD1206818
:1014B00002F0F5FC00280CDAD5F8040820F0010051
:1014C000C5F80408204600F08BF921684FF0004071
:1014D0004861206802F0E3FC00050AD5D5F8080849
:1014E000C00702D0204600F0B7F921684FF4006031
:1014F0004861206802F0D3FCC10404F55D7B3BD554
:10150000D5F8040820F00100C5F80408002120687F
:1015100002F08AFC0020FF2107E000BF05EB40122B
:10152000C2F80819C2F8081B401C62688242F5D84C
:101530004FF0FF30C5F81808D5F81C0840F001102E
:10154000C5F81C08D5F8140840F00B00C5F81408BD
:10155000D5F8100840F00B00C5F81008D5F80008C1
:1015600020F4FE60C5F800085946206802F0D4FA5D
:1015700021684FF480504861206802F090FC80049C
:1015800016D5206802F010F92068C16821F4705166
:10159000C1600320C4E9030A2068C16841F4A05176
:1015A000C160204600F00CF920684FF40051416101
:1015B000206802F074FCC00636D52068816921F0ED
:1015C00010018161D5F8208008F00F00C0EBC00049
:1015D00004EB8007C8F3434007F5E677022802D002
:1015E000062812D01BE047F6F07118EA010F16D05A
:1015F000C8F30A1290462846F96802F054FCF868CD
:101600004044F860B869404408E00822594628463A
:1016100002F049FCB969C8F30A100844B8612068AF
:10162000816941F010018161206802F038FC0007F7
:1016300005D5204600F0D8F82168C1F8149020683C
:1016400002F02DFCC00207D5F1B2204600F02FF8C1
:1016500021684FF480104861206802F020FC80026D
:1016600007D5F1B2204600F026F821684FF40010AB
:101670004861206802F013FC400006D52046FFF7C1
:1016800066FD21684FF080404861206802F007FC49
:1016900040070AD520684568680702D52046FFF74D
:1016A0006DFD2068416829434160BDE8F09FD0F896
:1016B000A40301F029BED0F8A40301F027BE000066
:1016C0002DE9F04186B004004FF0000504D094F8F5
:1016D0007103002620B108E0012006B0BDE8F081CA
:1016E00084F87063204600F04FF8032084F87103FB
:1016F000206802F07DF904F1100114228846684642
:10170000FEF752FD94E80F0002F068F8002120680F
:1017100002F0D9FB5FF00107C5EBC50004EB8000C8
:1017200080F8297000F8285FC580C6708660C660A2
:101730006D1C46610F2DEFD35FF00000C0EBC001C0
:1017400004EB810181F8CD6181F8CC01C88581F875
:10175000CF61C1F8D461C1F8D861401CC1F8E06123
:101760000F28EBD3142241466846FEF71DFD94E88E
:101770000F0002F0B7F884F8246084F871732068D1
:1017800002F0A3F80020A8E708B50068B0F1A04F68
:1017900012D10A48416941F48051416140690022F7
:1017A00000F48050009011464320FFF765FCBDE82F
:1017B00008404320FFF754BC08BD00000010024061
:1017C00010B50446C068012100B90021D4F8A40373
:1017D00001F0E0FDD4F8A403BDE8104001F0A9BD7C
:1017E000D0F8A40301F0C4BDD0F8A40301F0C6BD35
:1017F00010B5044690F8700301280BD0012084F83E
:10180000700384F82410206802F073FB002084F831
:10181000700310BD022010BDD0F8A42300F55D7147
:10182000104601F0C1BD10B5044690F870030128C0
:1018300010D0012084F8700301462046FFF760FCB9
:10184000206802F036F8206802F0D8FA002084F808
:10185000700310BD022010BD10B50446D0F8A403DB
:1018600001F0DDFD2068D0F8001E41F00101C0F854
:10187000001EA069002804D00248016841F006015A
:10188000016010BD10ED00E02DE9F84F044600782E
:10189000DFF8E481794DC0074FF001096FD0E869A6
:1018A00040F08050E861E869754E00F0805000908B
:1018B000306840F480703060FFF78AFB074604E030
:1018C000FFF786FBC01B64287ED83068C005F7D5BB
:1018D000286AA18800F4407001F4407188424ED01B
:1018E000286A4FF4803292FAA2F1B1FA81F108EB42
:1018F000810320F440704E46C3F8009492FAA2F29D
:10190000B2FA82F208EB82010023C1F800342862A7
:1019100080072ED5FFF75CFB074641F2883B4FF06E
:10192000020A04E0FFF754FBC11B594577D89AFA25
:10193000AAF1B1FA81F141F040015046B6EB511FD6
:1019400001D129680BE090FAA0F1B1FA81F141F0E0
:101950004001B0EB511F01D1296A00E0696A9AFA8F
:10196000AAF0B0FA80F000F01F0206FA02F001427D
:10197000D8D0286A616820F4407008432862207833
:10198000800705D56868A16820F440400843686076
:101990002078400705D5E86AE16820F40030084364
:1019A000E8622078000705D5E86A216920F48020E4
:1019B0000843E862E86A800302D4E86A40034FD52E
:1019C0002868C00044D400E029E02868400105D51B
:1019D000E86AA16900F0F00088423FD1E86AA16995
:1019E00020F0F0000843E862E86A616920F4704082
:1019F0000843E8624FF0805090FAA0F0B0FA80F00F
:101A00004F4648F82090FFF7E3FAB84606464FF0F5
:101A1000005707E0FFF7DCFA801B642802D9032097
:101A2000BDE8F88F97FAA7F0B0FA80F040F02000F8
:101A3000400901D0286800E0686A97FAA7F1B1FA76
:101A400081F101F01F0208FA02F10842E2D007E03A
:101A5000E86A616900F47040884201D00120DFE744
:101A60002078C00605D56868E16920F48000084345
:101A700068600020D4E700000000424200100240ED
:101A8000007000402DE9F047DFF8789205460E46D9
:101A9000D9F80000022300F00707012041044206A4
:101AA000994C41F28838B74271D2D9F800C02CF075
:101AB000070C4CEA060CC9F800C0D9F8007007F012
:101AC0000707B7426FD12E78B60705D56668AF68AD
:101AD00026F0F0063E4366602E78F60756D06E6814
:101AE000012E0BD0022E1ED093FAA3F1B1FA81F190
:101AF00041F02001490924D0216823E091FAA1F2A4
:101B0000B2FA82F242F02002520901D0226800E0CB
:101B1000626A91FAA1F1B1FA81F101F01F018840E6
:101B2000024240D017E092FAA2F1B1FA81F141F0FD
:101B30002001490901D0216800E0616A92FAA2F20D
:101B400002E0616A93FAA3F2B2FA82F202F01F0293
:101B50009040014227D0606820F00300304360606D
:101B6000FFF736FA06466868012809D0022847467A
:101B700013D01EE0FFF72CFA801BB84201D992E087
:101B800047466068C0F381000128F3D1A1E015E069
:101B9000FFF71EFA801BB84273D86068C0F381005B
:101BA0000228F5D195E092E0FFF712FA801BB842C7
:101BB00079D8606810F00C0FF6D18AE02F78BF0753
:101BC00007D56768D5F808C027F0F00747EA0C0783
:101BD00067602F78FF076DD06F68012F0BD0022F41
:101BE0001ED093FAA3F1B1FA81F141F02001490925
:101BF00024D0216823E091FAA1F2B2FA82F242F0F5
:101C00002002520901D0226800E0626A91FAA1F133
:101C1000B1FA81F101F01F018840024257D017E06C
:101C200092FAA2F1B1FA81F141F02001490901D003
:101C3000216800E0616A92FAA2F202E0616A93FA16
:101C4000A3F2B2FA82F202F01F02904001423ED0AB
:101C5000606820F0030038436060FFF7B9F9074679
:101C60006868012807D0022811D01FE0FFF7B0F9FB
:101C7000C11B414517D86068C0F381000128F5D128
:101C800018E010E0FFF7A4F9C11B41450BD86068CC
:101C9000C0F381000228F5D10CE000BFFFF798F9EE
:101CA000C11B414502D90320BDE8F087606810F0F0
:101CB0000C0FF3D1D9F8001021F007013143C9F816
:101CC0000010D9F8000000F00700B04201D0012058
:101CD000EAE72878400705D56068E96820F4E06005
:101CE000084360602878000706D56068296920F4F9
:101CF000605040EAC10060600020FFF789F90020D1
:101D0000D2E70000002002400010024000B500F0C1
:101D100017F808494968F02292FAA2F201F0F0019E
:101D2000B2FA82F2D140044A515CC84003490860CB
:101D300000BD000000100240CC400008040000205C
:101D4000F0B52CA28AB007CA8DE807002CA103AC1D
:101D50000FC984E80F002E494B682E4803F00C028F
:101D6000042A42D0082A40D14FF4701595FAA5F400
:101D700003F47012B4FA84F4E2406E461DF80220B7
:101D8000DB0334D5CB6A0F2494FAA4F403F00F03D9
:101D9000B4FA84F4E34003ACE45CCB6ADB0316D50D
:101DA000CB6AF02797FAA7F703F0F003B7FA87F7A3
:101DB000C96AFB40AF1297FAA7F701F47061B7FA4E
:101DC00087F7F9405B1CB0FBF3F0891C4843B0FB7C
:101DD000F4F095FAA5F350434FF45011B3FA83F39E
:101DE000D940715C914200D140080AB0F0BD0A4868
:101DF0005043FAE700000405060708090000000D3B
:101E00000102030405060708090A0B0C0D0E0F104A
:101E10000010024000127A0000093D002DE9F84F41
:101E200004460078FC4DC0074FF0010625D06868D5
:101E30007704C0F38100012807D06868C0F38100EF
:101E400002281BD16868C00318D597FAA7F0B0FA2A
:101E500080F040F02000400901D0286800E0686A66
:101E600097FAA7F1B1FA81F101F01F0106FA01F129
:101E7000084202D0A068002876D081E0286820F4CB
:101E800080302860286820F480202860FFF7A0F8C0
:101E9000804605E0FFF79CF8A0EB080064287DD899
:101EA00097FAA7F0B0FA80F040F02000400901D086
:101EB000286800E0686A97FAA7F1B1FA81F101F0A9
:101EC0001F0106FA01F10842E4D1A068B0F5803F95
:101ED0000BD010B1B0F5A02F11D0286820F48030BD
:101EE0002860286820F4802002E0286840F48030D0
:101EF0002860A06820B3FFF76BF880460AE02868E6
:101F000040F480202860F0E7FFF762F8A0EB0800BB
:101F10006428C4D897FAA7F0B0FA80F040F0200007
:101F2000400901D0286800E0686A97FAA7F1B1FA81
:101F300081F101F01F0106FA01F10842E4D01FE02F
:101F4000FFF746F8804605E0FFF742F8A0EB0800EF
:101F50006428A4D897FAA7F0B0FA80F040F02000E7
:101F6000400902D0286801E0B8E0686A97FAA7F152
:101F7000B1FA81F101F01F0106FA01F10842E3D143
:101F80002078A64F80074FF002084FF000095BD57C
:101F900068684FF0F80B10F00C0F00E01DE207D05E
:101FA0006868C0F3810002281BD16868C00318D498
:101FB00098FAA8F0B0FA80F040F02000400901D073
:101FC000286800E0686A98FAA8F1B1FA81F101F096
:101FD0001F0106FA01F108422BD0606901287DD16A
:101FE00027E0606988B396FAA6F0B0FA80F047F867
:101FF0002060FEF7EDFF824606E000BFFEF7E8FF37
:10200000A0EB0A00022884D898FAA8F0B0FA80F071
:1020100040F02000400901D0286800E0686A98FA82
:10202000A8F1B1FA81F101F01F0106FA01F10842AD
:10203000E4D028689BFAABF2A169B2FA82F220F0F0
:10204000F80091400843286025E0FFE796FAA6F1E2
:10205000B1FA81F147F82190FEF7BAFF824605E018
:10206000FEF7B6FFA0EB0A000228CCD898FAA8F039
:10207000B0FA80F040F02000400901D0286800E06C
:10208000686A98FAA8F1B1FA81F101F01F0106FA25
:1020900001F10842E4D1207800076FD5E069C0B3B0
:1020A00096FAA6F0B0FA80F007EB8000C0F88064E2
:1020B000FEF78EFF824605E0FEF78AFFA0EB0A00DE
:1020C0000228A0D898FAA8F1B1FA81F141F0600194
:1020D0004046B6EB511F02D129680CE0A0E190FA0E
:1020E000A0F1B1FA81F141F06001B0EB511F01D1D3
:1020F000296A00E0696A98FAA8F0B0FA80F000F066
:102100001F0206FA02F00142D6D00120FEF7BCFD04
:1021100034E0FFE796FAA6F1B1FA81F107EB81010D
:10212000C1F88094FEF754FF824605E0FEF750FFA9
:10213000A0EB0A00022898D898FAA8F1B1FA81F128
:1021400041F060014046B6EB511F01D129680BE018
:1021500090FAA0F1B1FA81F141F06001B0EB511FAA
:1021600001D1296A00E0696A98FAA8F0B0FA80F013
:1021700000F01F0206FA02F00142D7D12078400792
:1021800073D5E86940F08050E861E869DFF890B005
:1021900000F080500090DBF8001041F48071CBF823
:1021A0000010FEF715FF824606E000BFFEF710FFA5
:1021B000A0EB0A00642884D8DBF80000C005F5D540
:1021C000286A20F001002862286A20F004002862B2
:1021D000FEF7FEFE834641F2883A05E0FEF7F8FE80
:1021E000A0EB0B015145A6D898FAA8F1B1FA81F1FC
:1021F00041F040014046B6EB511F01D1296812E081
:1022000090FAA0F1B1FA81F141F04001B0EB511F19
:1022100008D1296A07E00000001002400000424295
:1022200000700040696A98FAA8F0B0FA80F000F0F7
:102230001F0006FA00F00142D0D1206901280AD01F
:1022400008B1052812D0286A20F001002862286A07
:1022500020F0040002E0286A40F0010028622069B2
:1022600098B3FEF7B5FE83460CE05BE0286A40F0C9
:1022700004002862EFE700BFFEF7AAFEA0EB0B0107
:10228000514598D898FAA8F1B1FA81F141F040018E
:102290004046B6EB511F01D129680BE090FAA0F13E
:1022A000B1FA81F141F04001B0EB511F01D1296A2F
:1022B00000E0696A98FAA8F0B0FA80F000F01F0216
:1022C00006FA02F00142D7D02CE0FFE7FEF780FECD
:1022D000834605E0FEF77CFEA0EB0B0151457CD860
:1022E00098FAA8F1B1FA81F141F040014046B6EB0D
:1022F000511F01D129680BE090FAA0F1B1FA81F1E8
:1023000041F04001B0EB511F01D1296A00E0696A38
:1023100098FAA8F0B0FA80F000F01F0206FA02F076
:102320000142D7D1E16AA1B36868C00307D56868E4
:10233000C0F38100022802D1E86AC00370D44FF0D4
:1023400080604FF0006B02290DD0E96A21F48031E2
:10235000E96290FAA0F0B0FA80F047F82090FEF71A
:1023600037FE804670E02968C90005D5E96A626BCE
:1023700001F0F001914253D14FF0806090FAA0F04B
:10238000B0FA80F047F82090FEF722FE8246D84649
:1023900006E06EE0FEF71CFEA0EB0A0064281CD8E5
:1023A00098FAA8F0B0FA80F040F02000400901D07F
:1023B000286800E0686A98FAA8F1B1FA81F101F0A2
:1023C0001F0106FA01F10842E4D1E86A616B20F0CE
:1023D000F0000843E862E86A00E082E0216B20F444
:1023E00070600843E8624FF0806090FAA0F0B0FAA5
:1023F00080F047F82060FEF7EBFD824606E000BF64
:10240000FEF7E6FDA0EB0A0064286AD898FAA8F067
:10241000B0FA80F040F02000400902D0286801E0C6
:10242000A7E0686A98FAA8F1B1FA81F101F01F01FA
:1024300006FA01F10842E3D01BE000BFFEF7C8FD39
:10244000A0EB080064284CD89BFAABF0B0FA80F0FF
:1024500040F02000400901D0286800E0686A9BFA3B
:10246000ABF1B1FA81F101F01F0106FA01F1084266
:10247000E4D1206AA0B36968C1F38101022978D050
:1024800002284FF080714FF0007A48460AD091FA46
:10249000A1F1B1FA81F147F82100FEF799FD074655
:1024A00054466FE08B4691FAA1F1B1FA81F1B94639
:1024B00047F82100FEF78CFD8046574606E000BF36
:1024C000FEF786FDA0EB0800022858D897FAA7F07F
:1024D000B0FA80F040F02000400903D0286802E004
:1024E00065E04CE0686A97FAA7F1B1FA81F101F072
:1024F0001F0106FA01F10842E2D1606AB0F5803F9F
:1025000009D1E86A61680843E862E86AE16820F096
:102510000F000843E862D4E909010843696821F41F
:102520007411084368609BFAABF0B0FA80F049F888
:102530002060FEF74DFD044605E000BFFEF748FDB4
:10254000001B02281BD897FAA7F0B0FA80F040F0E1
:102550002000400901D0286800E0686A97FAA7F1D6
:10256000B1FA81F101F01F0106FA01F10842E5D04C
:102570001DE01EE0FEF72CFDC01B022802D903203F
:10258000BDE8F88F94FAA4F0B0FA80F040F0200093
:10259000400901D0286800E0686A94FAA4F1B1FA11
:1025A00081F101F01F0106FA01F10842E2D1002099
:1025B000E6E70120E4E74FF0E0210428086903D0B2
:1025C00020F004000861704740F00400FAE770470B
:1025D00010B5401EB0F1807F01D3012010BD4FF037
:1025E000E02460610F21601700F0BEF80020A061B8
:1025F00007202061002010BD10B5FFF7E8FF10BDD7
:1026000040210148FEF7DABC000801400246802163
:102610000148FEF7D7BC00000008014080210148B6
:10262000FEF7CCBC00080140024620210148FEF71D
:10263000C9BC00000008014020210148FEF7BEBCD3
:102640000008014010B51A488AB01849016000F12D
:10265000800101631C314163164900240968C0E907
:1026600001144FF4A021C0E903414FF48001C0E9F7
:102670000514C461046244628462C462FEF784F893
:102680000120CDE906400394089004940E2005949F
:10269000099000940194029469460548FDF736FFBD
:1026A000002801D0FDF7B0FE0AB010BD0064004064
:1026B000F001002000F8000810B51B488AB0194945
:1026C000016000F1800101631C314163174900245E
:1026D0000968C0E901144FF4A021C0E903414FF497
:1026E0008001C0E90514C461046244628462C4626A
:1026F000FEF74AF801210E200791CDE90504039465
:102700000494CDE9081008480094019402946946A5
:102710004038FDF7FBFE002801D0FDF775FE0AB03A
:1027200010BD0000006800403002002004F80008DE
:1027300010B500220849094800F0EDFC0849074897
:1027400000F091FE0749054800F02EFBBDE810405F
:10275000024800F0D5BE000068000020880B002071
:10276000900100209C0000200907090E002806DACD
:1027700000F00F0000F1E02080F8141D704700F118
:10278000E02080F8001470470148FEF7F3BD000018
:10279000E00700202DE9F0470F46C1EBC70100EB31
:1027A00081050668D5E90F01441A286B2835A04237
:1027B00000D20446E01CC11700EB91704FEAA0085C
:1027C00006EB471916E0441AA868A04200D2044656
:1027D000E01CC11700EB91704FEAA008A3B2FAB257
:1027E0003046E96801F096FBE8682044E860A86993
:1027F0002044A861D9F8180981B2414505D9D5E925
:102800000501814201D20028DDD1002C06DC012027
:10281000D6F83418B8408143C6F834180020BDE813
:10282000F08700002DE9FC4F816809B310F1040323
:102830004A49494C00F11402CC62241D0C63241D4A
:102840004C63241D8C63241DCC63241D0C64241D47
:102850004C64241D8C64241DCC64241D0C65241D33
:102860004C65241D8C650024DFF8F4C018306CE042
:102870000346DDE7CF6A3037CF620D6B30350D632D
:102880004E6B30364E6301968E6B30368E630096FB
:10289000CE6B3036B346CE630E6C3036B1460E6426
:1028A0004E6C3036B2464E648E6C30368E64D1F843
:1028B0004C8008F13008C1F84C80D1F8508008F104
:1028C0003008C1F85080D1F8548008F13008C1F8C0
:1028D0005480D1F8588008F13008C1F85880D3F8F6
:1028E00000803F682D68C64608EA07083D40A845B5
:1028F0002AD1D9F80070156836683D403E40B5428F
:1029000022D1DBF800500668DAF800702E402F4024
:10291000BE4219D1019E36682EEA0605009E366831
:1029200035431D600D6D8F6D16682D683F68AE4391
:102930002F403E431660CE6C4F6D056836683F6889
:10294000B54337403D430560641CDCF80050AC42A1
:1029500090DBBDE8FC8F0000FCF7000808000020B9
:1029600028F80008084900200B6A002B0ADD0748F8
:102970008A6A805C521C8A62402A01DB00228A62D9
:102980005B1E0B627047000008000020000300205F
:10299000084910B50B6A402B0ADA074C4A6AA05462
:1029A000521C4A62402A01DB002048625B1C0B6219
:1029B00010BD0000080000200003002010B5FEF745
:1029C0000DFBBDE81040FFF717BE000070B59CB0CE
:1029D000012500242804CDE902040226CDE908607F
:1029E000CDE900544FF4E010CDE90A046846FFF742
:1029F00015FA0F20CDE90E06A802CDE910400221FC
:102A00000EA81294FFF73EF8102013901A9413A802
:102A1000FEF73AFFFFF77AF94FF47A71B0FBF1F065
:102A2000FFF7D6FD0420FFF7C6FD280790FAA0F0B7
:102A30000549B0FA80F041F8205000221146501E9E
:102A4000FEF71AFB1CB070BD00004242104801683E
:102A500041F00101016041680E4A11404160016886
:102A60000D4A11400160016821F480210160416834
:102A700021F4FE014160016821F0A05101604FF492
:102A80007F0181600021C1620449C0030860704772
:102A9000001002400000FFF0FFFFF6FE08ED00E02E
:102AA0002DE9F0475D4C0127A278EAB30025012A01
:102AB0004BD0032A4FD02146042A496950D0052A19
:102AC00053D0062A56D0072A58D02346082A9B8876
:102AD00057D0A61D4FF04E094FF0590A4FF00A0883
:102AE000092A52D00A2A7DD023460B2ADB697AD0E4
:102AF0000D270C2A78D00D2A21D143EA0062002349
:102B00000220E261FEF72AF958B10120FFF78CFD9F
:102B100086F80290FEF718F90321A01DFDF764FC6A
:102B2000A570A088001F00E00BE00004000CA0804E
:102B3000616901F1040161616BD084F80280BDE834
:102B4000F0873128FBD1A770F9E7322801D10320A3
:102B500004E0A570F3E7000660610420A070EEE7D2
:102B600041EA004060610520F8E741EA0020606129
:102B70000620F3E7014307206161EFE7A580082005
:102B8000ECE70343A3800920E8E752280BD045284F
:102B900011D0462814D05728D1D184F80280BDE83E
:102BA000F047FEF71BB9A570E165BDE8F0470846A0
:102BB0001946FDF719BCA570BDE8F047FEF78EBABF
:102BC000FEF70CF9164805606169C0E90217134960
:102BD0001831FEF765F840B10120FFF725FD86F8B2
:102BE000029004E009E00BE00FE086F802A00B4839
:102BF0000321801DFDF7F8FBABE7E0610B20ADE79B
:102C000043EA0020E0610C20A8E743EA0040E061CD
:102C100099E786F802A0FEF797F8E8E70800002099
:102C2000F0020020D0F8180220B10021C0F81412E0
:102C3000084670470220704770B50546D0F8184224
:102C400000F023FBC4F80C02D5F8180248B1D5F8FF
:102C50001C12D4F80402CA6804F5037190470020DE
:102C600070BD022070BD70B504460025812100F0C2
:102C70006EFA0121204600F06AFA8221204600F017
:102C800066FAD4F8180250B1D4F81C0204F50674A0
:102C900040688047206800F039FD00202060284609
:102CA00070BD10B5D0E9864159B194F80002FF28F3
:102CB00007D08B6894F8012221469847FF2084F8BA
:102CC0000002002010BD00000A210180004870476A
:102CD000B80000204321018000487047080100200F
:102CE0004321018000487047C40000204321018037
:102CF000004870474C0100202DE9F0410446007C5B
:102D000000254FF4007670B3402302228121204633
:102D100000F0FEFA402302220121204600F0F8FADA
:102D2000082303228221204600F0F2FA4FF40770B4
:102D300000F0EEFCC4F81802F0B10746D4F81C020B
:102D4000006880470020C7F81402C7F81802207CEA
:102D5000D7F8042290B140230121204600F0E2FA86
:102D60002846BDE8F081FFE7334602228121204654
:102D700000F0CEFA3346CEE70125F1E73346EBE724
:102D800010B5D0F8181269B1027C002AD1F80422DB
:102D900005D04023012100F0C5FA002010BD4FF4FA
:102DA0000073F7E7022010BD02460220002902D07E
:102DB0000020C2F81C127047D0F81802C0F80412A4
:102DC00000207047D0F81802C0F81022C0F808128E
:102DD0000020704770B50646D0F8185208780C46A7
:102DE00010F0600121D0202927D1E288AAB1000685
:102DF000607807D5D6F81C128B6829469847E28878
:102E0000294617E085F80002A07985F80102E288DA
:102E10002946304600F050F80FE0D6F81C126078D2
:102E200000228B682146984707E060780A2804D181
:102E300003490122304600F059F8002070BD00001F
:102E4000B400002010B5D0F8181289B1D1F81422BE
:102E50000AB1012010BD0122C1F81422B1F81022DC
:102E600093B2D1F80822812100F0E2FA002010BDCF
:102E7000022010BD10B5D0F81422526890470020EF
:102E800010BD134610B50A46002100F04BFA002091
:102E900010BD134610B50A46002100F0C9FA002003
:102EA00010BD10B50446802100F0ABFA2046BDE805
:102EB0001040002100F0A5BA10B50323C0F8082186
:102EC000C0F8F431C0F80C2113460A46002100F086
:102ED00029FA002010BD10B505210023C0F8F41117
:102EE0001A46194600F01EFA002010BD10B5022344
:102EF0008261C0F8F431C26113460A46002100F035
:102F000097FA002010BD10B504210023C0F8F41179
:102F10001A46194600F08CFA002010BD10B50A467A
:102F2000024903A000F0D4F8004810BD400300207F
:102F300043444320436F6E66696700001220088097
:102F4000004870478800002010B50A46024903A0D7
:102F500000F0BEF8004810BD400300204344432069
:102F6000496E746572666163650000000420088024
:102F7000004870478400002010B50A46024903A0AB
:102F800000F0A6F8004810BD4003002053544D69DE
:102F900063726F656C656374726F6E696373000052
:102FA00010B50A46024903A000F092F8004810BD8F
:102FB0004003002053544D333220566972747561BA
:102FC0006C20436F6D506F727400000010B50A469C
:102FD000024903A000F07CF8004810BD4003002027
:102FE000303030303030303030303141000000008F
:102FF000F8B5044648880D46010A08294BD2DFE897
:1030000001F04A0409174A4A4048D4F81012207CBB
:103010000A6832E0207C02260028D4F8140205D089
:10302000C16A684688470146467041E0816AF8E710
:10303000C0B206282FD2DFE800F003080D12171CDB
:10304000D4F81012207C4A6817E0D4F81012207CC3
:103050008A6812E0D4F81012207CCA680DE0D4F817
:103060001012207C0A6908E0D4F81012207C4A690A
:1030700003E0D4F81012207C8A6969469047014623
:1030800016E0207C38B9D4F81402416B68468847B2
:10309000F5E7207C20B129462046FFF702FFF8BD66
:1030A000D4F81402016B684688470146072048702F
:1030B000BDF800000028F2D0EA88002AEFD0824252
:1030C00000D90246ADF800202046FFF70FFFF8BDFB
:1030D00070B5002300281DD00446002502E06D1CB9
:1030E000EDB2641C2678002EF9D1022404EB4504CD
:1030F0001480CC545B1C0322CA5400245B1C06E0E1
:10310000CA545B1CDAB28C54521CD3B2401C0278F5
:10311000002AF5D170BD10B580B1D0F8143213B1CA
:103120000023C0F8143209B1C0F81012012180F850
:10313000FC11027000F0AEF8002010BD022010BD9E
:1031400010B5D0F82002FEF73FF8002010BD10B5F2
:10315000D0F82002FEF716F8002010BD2DE9F0414E
:103160001746044641B1D4F8140242698AB394F870
:10317000FC01032842D043E0D4F8F411002504F107
:103180001400022933D1D0E902639E4207D9F31A11
:1031900083609AB239462046FFF77BFE12E0406812
:1031A000B0FBF3F103FB1101A1B9984212D3D4F89B
:1031B000F81188420ED2002211462046FFF769FE20
:1031C000C4F8F85100231A461946204600F0AAF820
:1031D0000DE012E0D4F81402C16829B194F8FC01A2
:1031E000032801D1204688472046FFF774FE94F853
:1031F0000002012804D184F8005201E020469047E3
:103200000020BDE8F08170B51546044641B1D4F800
:10321000140282693AB394F8FC01032824D025E013
:10322000D4F8F41104F5827003291FD1D0E90221EA
:103230008A420BD9531A83600846834200D303465F
:103240009AB229462046FFF71CFE0FE0D4F814027C
:10325000016929B194F8FC01032801D1204688476F
:103260002046FFF750FE01E020469047002070BD49
:103270000020704710B5012180F8FC11D0F814220D
:10328000017952689047002010BDD0F82002FDF768
:10329000C3BF000010B5017809BB1249C1F8A403EF
:1032A000C0F820124FF0A0400860072048600220BC
:1032B000C8600020086148618861C8610846FEF75F
:1032C000FFF980210748FDF71CFF40220021054837
:1032D000FDF71BFF802201210248FDF716FF0020A9
:1032E00010BD0000E00700200A0601F07F01D0F8C1
:1032F0002002C1EBC10100EB810002D590F82A0049
:10330000704790F8CE01704700207047002070474A
:1033100010B51C461346D0F820022246FDF786FF62
:10332000002010BD10B5D0F82002FDF7A3FF00204B
:1033300010BD70B50022044640231146FFF7E8FF98
:1033400040252B46002280212046C4F81051FFF76B
:10335000DFFF0120256284F8FC01D4F8180228B1AF
:10336000D4F814022179426820469047002070BDAD
:1033700090F8FD1180F8FC110020704710B590F80E
:10338000FC11032904D1D0F81412C96901B188478E
:10339000002010BD01740020704710B5D0F8200245
:1033A000FEF726FA002010BD70B5044600F5027045
:1033B000054600F044F80120C4F8F401B4F80E0208
:1033C000C4F8F80194F8080210F01F010AD001298E
:1033D0000DD0022910D000F08001204600F011F835
:1033E000002070BD2946204600F08FF8F8E72946F6
:1033F000204600F071F9F3E72946204600F0FEF878
:10340000EEE710B5D0F82002FDF75DFF002010BDFB
:1034100010B5D0F82002FEF706FA002010BD90F893
:10342000FC1180F8FD11042180F8FC110020704788
:1034300010B5D0F82002FDF775FF002010BD0A7806
:1034400002704A7842708A78CB7802EB032242807D
:103450000A794B7902EB032282808A79C97902EBDF
:103460000121C18070470246002011B1C2F8141238
:1034700070470220704710B5D0F8142202241AB108
:103480001268904700B90024204610BD70B50E4662
:103490001A4D897804462970012928D894F8FC012E
:1034A000022802D0032822D105E099B103206160EF
:1034B00084F8FC0109E091B1606888420AD0C1B289
:1034C0002046FFF7D7FC297861602046FFF7D3FF3D
:1034D00002280CD02046BDE87040FFF714BD022042
:1034E00084F8FC0120466160FFF7C4FCF2E7314636
:1034F0002046BDE87040FFF7D4BC0000C8010020A2
:1035000010B5FFF785FF002010BD2DE9F041002622
:103510004B78012532460A2B43D2DFE803F03C58B2
:103520004251420805422A27FFF762FD63E0044644
:103530008888C8B9C888B8B9887800F07F0794F837
:10354000FC01032810D084F8FE7139462046FFF7AD
:1035500024FF2046FFF7D7FC1FB1022084F8FC01AE
:1035600049E084F8FC5146E020461AE0FFF78EFF60
:1035700041E0CB88012B14D190F8FC31022B02D012
:10358000032B0ED104E08260012200F1080114E057
:103590000122011D11E090F8FC21022A04D0032A27
:1035A00002D0FFF77EFC26E0C560D0F8041209B116
:1035B0000321C160022200F10C01FFF797FC1AE021
:1035C00004464888012816D1C4F804520BE004468A
:1035D00090F8FC01022801D00328C5D148880128B1
:1035E00009D1C4F80422D4F8140282682046904716
:1035F0002046FFF788FC3046BDE8F08170B50D46E7
:103600000446287800260979C0F34110012806D025
:103610006878A0B301281FD003283FD107E0D4F871
:1036200014022946826820469047002070BD94F815
:10363000FC01022817D003282CD1688828B921B1B1
:10364000802902D02046FFF7DCFED4F81402294678
:1036500082682046904713E094F8FC01022802D0CB
:10366000032817D103E0C9B180291BD116E068886F
:10367000A0B9480604D02046FFF762FDE5E703E065
:103680002046FFF740FC09E094F8FC01022807D02F
:1036900003280BD029462046FFF703FC304670BDB7
:1036A0004806FBD02046FFF7ACFEF7E7080601F01E
:1036B0007F0004EB001501D5143501E005F5827596
:1036C0002046FFF711FE00B10120286002222946A2
:1036D0002046FFF70BFCE1E770B5054690F8FC01CA
:1036E0000C4603280DD1207901280AD8D5F81402F8
:1036F000826828469047E08830B92846FFF703FCE7
:1037000002E02846FFF7CDFB002070BD00F042BC70
:1037100000487047C005002030B54B780A7803B1E7
:10372000CA80CA78022A01D100220A711D4C0122E6
:103730000D78AA40012BD0F81C3818D043EA024279
:10374000C0F81C280A7800EB4210D0F8002B1204B5
:103750000BD4D0F8002B0B89C3F30A031A43C978A2
:1037600044EA81410A43C0F8002B002030BD92B2E8
:103770001343C0F81C380B7800EB4310D0F8002935
:103780001204F2D4D0F800290D89C5F30A052A43A2
:10379000C978890441EA83510A432243C0F80029C9
:1037A000E3E7000000800010D0F800196FF30A0171
:1037B000C0F80019D0F80818C1F34101022905D159
:1037C000D0F8001941F00301C0F80019D0F804182E
:1037D00041F48071C0F804180020704710B5044609
:1037E000C06840F04000E060204600F005F84FF46B
:1037F0008030A063002010BD0146002200BF501C95
:1038000002460F4B984201D903207047086900F027
:1038100000400028F3D00022086940F00100086150
:1038200000BF501C0246064B984201D90320ECE72A
:10383000086900F001000028F3D100BFE5E70000AF
:10384000400D030030B54D7801220C7802FA04F3E4
:10385000012DD0F83C4816D024EA0343C0F83C3888
:10386000D0F81C380C78A24023EA0242C0F81C2889
:10387000097800EB4110D0F8001B21F40041C0F89A
:10388000001B002030BD9BB29C43C0F83C48D0F8E0
:103890001C380C78A24092B29343C0F81C380978C7
:1038A00000EB4110D0F8001921F40041C0F80019D4
:1038B000E7E710B5D0F8041821F00201C0F80418A9
:1038C0000320FDF7E1F9002010BD10B5D0F8041871
:1038D00041F00201C0F804180320FDF7D5F90020DB
:1038E00010BD00002DE9F0410E46044600200546BB
:1038F000DDF82480DDF81C7004EB8001C1F8045170
:10390000401C0F28F8D3A06B40F40020A063C4F83B
:10391000005ED4F80008C4F80008D4F8000840F0AD
:103920000300C4F800081021204600F07DFA20466C
:1039300000F06AFAC4F81058C4F814584FF0FF3079
:10394000C4F81808C4F81C5800204FF09042FF2318
:1039500011E000BF04EB4011D1F800C9BCF1000F29
:1039600002DAC1F8002901E0C1F80059C1F8105984
:10397000C1F80839401C8642ECD8002011E000BF95
:1039800004EB4011D1F800CBBCF1000F02DAC1F812
:10399000002B01E0C1F8005BC1F8105BC1F8083BE7
:1039A000401C8642ECD8D4F8100820F48070C4F88B
:1039B0001008A5616FF080406061A06940F01000C0
:1039C000A061A06908490843A0611FB1A06940F047
:1039D0000800A061B8F1010F03D1A06903490843B1
:1039E000A0610020BDE8F08100383C800400004068
:1039F000816821F0010181600020704710B54C788A
:103A0000444B0A7800EB4212012C30D0D2F8104B14
:103A10006FF31204C2F8104B0A7800EB4212D2F88E
:103A2000104B1C40C2F8104B4A690AB18A684A61BF
:103A30000A7800EB4212D2F8103B43F40023C2F89C
:103A4000103B0A7800EB4212D2F8103B8C68C4F3AA
:103A500012042343C2F8103B097800EB4110D0F860
:103A6000001B41F00441C0F8001B002010BD4C6950
:103A7000002CD2F8104939D06FF31204C2F8104963
:103A80000A7800EB4212D2F810491C40C2F81049E3
:103A90004B698A68934200D94A610A7800EB421266
:103AA000D2F8103943F40023C2F810390A7800EB39
:103AB0004212D2F810394C69C4F3120453EA0403D9
:103AC000C2F810394A693AB1D0F834280C78012389
:103AD000A3401A43C0F83428097800EB4110D0F80D
:103AE000001941F00441C0F80019BEE71C40C2F8BB
:103AF00010490A7800EB4212D2F8103943F400233F
:103B0000C2F810390A7800EB4212D2F810396FF37C
:103B10001203D5E7FFFF07E00021C0F8101BD0F823
:103B2000101B41F40021C0F8101BD0F8101B41F00D
:103B30001801C0F8101BD0F8101B41F0C041C0F8AC
:103B4000101B002070474B780A7800EB4212012BC3
:103B50000BD0D2F8003B23F40013C2F8003BCA7824
:103B6000032A17D0022A15D01DE0D2F8003923F419
:103B70000013C2F80039CA78032A01D0022A12D1F0
:103B8000097800EB4110D0F8001941F08051C0F8DD
:103B9000001908E0097800EB4110D0F8001B41F053
:103BA0008051C0F8001B002070474B780A7800EB6A
:103BB0004212012B14D0D2F8003B002B05DBD2F8C7
:103BC000003B23F08043C2F8003B097800EB411032
:103BD000D0F8001B41F40011C0F8001B0020704712
:103BE000D2F80039002B05DBD2F8003923F08043EE
:103BF000C2F80039097800EB4110D0F8001941F4FF
:103C00000011C0F80019E9E730B54D786FF0604455
:103C1000794B0A7800EB4212012D30D0D2F8105BBC
:103C20006FF31205C2F8105B0A7800EB4212D2F86B
:103C3000105B1D40C2F8105B4A69002A7ED08B6879
:103C40001A44521EB2FBF3F292B20B7800EB43130C
:103C5000D3F8105B04EAC2442543C3F8105B0B7829
:103C600000EB4313D3F8104B8D685543C5F3120294
:103C70001443C3F8104BCA78012A75D0B1E04D69DE
:103C800065B3D2F810596FF31205C2F810590A78CB
:103C900000EB4212D2F810591D40C2F810594B697E
:103CA0008A6813445B1EB3FBF2F204EAC2430A784B
:103CB00000EB4212D2F810492343C2F810390A78B7
:103CC00000EB4212D2F810394C69C4F312042343BA
:103CD000C2F81039CA78012A16D02AE0D2F8104961
:103CE0001C40C2F810490A7800EB4212D2F8103991
:103CF00043F40023C2F810390A7800EB4212D2F8DC
:103D000010396FF312030FE00A7800EB4212D2F879
:103D1000103923F0C043C2F810390A7800EB421280
:103D2000D2F8103943F00053C2F81039CA78012A8A
:103D30000ED04A69EAB1D0F8342800E02CE00C78C3
:103D40000123A3401A43C0F83428CA78012A10D1AD
:103D5000D0F80828D2050A7800EB4212D2F80039D0
:103D600003D443F0005302E02BE043F08053C2F849
:103D700000390A7800EB4212D2F8003943F00443CC
:103D8000C2F80039CA78012A34D18A8A93B20A78F3
:103D9000C96800F0BFF82DE00A7800EB4212D2F8B3
:103DA000103B8C68C4F312042343C2F8103B0A781A
:103DB00000EB4212D2F8103B43F40023C2F8103B50
:103DC00059E7D0F80828D2050A7800EB4212D2F859
:103DD000003B02D443F0005301E043F08053C2F8AB
:103DE000003B097800EB4110D0F8001B41F0044182
:103DF000C0F8001B002030BDFFFF07E0816841F0E4
:103E00000101816000207047002110220261054AF3
:103E1000491C914201D9032070470369DB06F7D49E
:103E200000207047400D03000022202343EA811147
:103E300001610549521C8A4201D903207047036978
:103E40009B06F7D400207047400D0300406900F046
:103E500001007047D0F81818D0F81C08084080B24C
:103E60007047D0F81818D0F81C080840000C7047AC
:103E7000D0F81038D0F83428CA4002F0010243EAE2
:103E8000C21200EB4110D0F808091040704700EB57
:103E90004111D1F8081BD0F8140808407047416957
:103EA00080690840704710B503460020D21C920874
:103EB00003F5805303E01C6841F8044B401C90421A
:103EC000F9D3084610BD10B5C26822F0C042C260E6
:103ED000012901D021B107E0C16841F0005102E0A1
:103EE000C16841F08041C1603220FCF7CDFE002066
:103EF00010BDD0F8002822F4FE62C0F80028D0F8E7
:103F000000284FF4FE6303EA01110A43C0F80028B9
:103F10000020704710B50024DB1C9B0800EB02302A
:103F200000F5805004E000BF51F8042B0260641CCF
:103F30009C42F9D3002010BD1FB5802000900120C5
:103F40000190002002900320094C0390694620460E
:103F5000FCF756FF4020009069462046FCF750FFD2
:103F60002020009069462046FCF74AFF1FBD000054
:103F70000008014002E008C8121F08C1002AFAD157
:103F800070477047002001E001C1121F002AFBD1D9
:103F90007047000010B5002821D0114B0022001FEF
:103FA000196803E0814203D80A4649680029F9D11B
:103FB00052B11368841A9C4204D1006818441060FE
:103FC000104602E0506000E0186039B102680B1A38
:103FD000934203D10B681A4402604968416010BDE6
:103FE000CC01002008B5FDF701F8FEF7EFFC3448DE
:103FF000816941F020018161816901F02001009116
:10400000816941F008018161816901F00801009135
:10401000816941F004018161806900F00400009031
:10402000FEF710FBFEF748FBFEF782FBFFF784FF6D
:104030000120FEF7EBFA00212248FCF7B9FC28B971
:10404000204800214030FCF7B3FC08B1FCF7DCF954
:104050001D4C43F6982600256078B0B119484030D1
:10406000006BFEF7DFFB17484030FCF785FD50B1D1
:10407000FEF7E2FA2069401C2061B04205D92561B3
:10408000FDF72CF801E065702561207880B10D48BE
:10409000FCF772FD50B1FEF7CFFAE068401CE0601B
:1040A000B04205D9E560FDF719F801E02570E5603B
:1040B000206A0028D0DDFEF755FCFEF7F1FCCBE7C7
:1040C00000100240F0010020080000200000000065
:1040D00001020304010203040607080970420008F4
:1040E00000000020D0010000F0010008304300086B
:1040F000D0010020E00D0000843F000801FF01FF17
:1041000001FF01FF01FF01FF01FF01FF01FF01FFAF
:1041100001FF01FF01FF01FF01FF01FF01FF01FF9F
:1041200001FF01FF01FF01FF01FF01FF01FF01FF8F
:1041300001FF01FF01FF01FF01FF01FF01FF01FF7F
:1041400001FF01FF01FF01FF01FF01FF01FF01FF6F
:1041500001FF01FF01FF01FF01FF01FF01FF01FF5F
:1041600001FF01FF01FF01FF01FF01FF01FF01FF4F
:1041700001FF01FF01FF01FF01FF01FF01FF01FF3F
:1041800001FF01FF01FF01FF01FF01FF01FF01FF2F
:1041900001FF01FF01FF01FF01FF01FF01FF01FF1F
:1041A00001FF01FF01FF01FF01FF01FF01FF01FF0F
:1041B00001FF01FF01FF01FF01FF01FF01FF01FFFF
:1041C00001FF01FF01FF01FF01FF01FF01FF01FFEF
:1041D00001FF01FF01FF01FF01FF01FF01FF01FFDF
:1041E00001FF01FF01FF01FF01FF01FF01FF01FFCF
:1041F00001FF01FF01FF01FF01FF01FF01FF01FFBF
:1042000001FF01FF01FF01FF01FF01FF01FF01FFAE
:1042100001FF01FF01FF01FF01FF01FF01FF01FF9E
:1042200001FF01FF01FF01FF01FF01FF01FF01FF8E
:1042300001FF01FF01FF01FF01FF01FF01FF01FF7E
:1042400001FF01FF01FF01FF01FF01FF01FF01FF6E
:1042500001FF01FF01FF01FF01FF01FF01FF01FF5E
:1042600001FF01FF01FF01FF01FF01BB5A0604002E
:104270005164A24A040457313259133D2F1B086D73
:10428000041A79041AA1041ACD041A1D041A490447
:104290001704030904120123020216408304405745
:1042A0002602010203011389031B0885041A8104F5
:1042B0001AB504C1130A06192F111A4027111C0937
:1042C000024333111CC03209C71B01020B13052422
:1042D0001610010524011009010424020205240618
:1042E000170107058203081C10090469320A1D071B
:1042F000050102432C070581070938442A40072A93
:104300008107112B0907440A2204440A16FF4413AB
:10431000F92C1B0867044BD52DF01AA30C1A2504A1
:104320001A3904C12AE12419041AED049AC91C009F
:04000005080001519D
:00000001FF
